S02B0000433A2F55736572732F65726963722F446F63756D656E74732F6769746875622F53774F6E4F66665F0F
S3150800600008040020894601088746010887460108D2
S31508006010C9660008874601088746010887460108B9
S315080060208746010887460108874601087D7F0308D9
S315080060308746010800B20308217F0308B3A90308AD
S31508006040117801088746010887460108874601082E
S31508006050A19B01088746010887460108874601086B
S315080060608746010887460108874601086F9B01088D
S315080060706D9B01088746010887460108874601087F
S3150800608087460108874601088746010887460108AA
S3150800609087460108874601087B8800088746010865
S315080060A08746010887460108B14701088D47010858
S315080060B051520108555201081D3803084141030889
S315080060C0EF790308EB79030891380308057A030882
S315080060D0F379030811410308F77903086D57030894
S315080060E0A141030887460108874601088746010833
S315080060F087460108B99E00088746010887460108B1
S315080061008746010887460108874601088746010829
S3150800611087460108874601084D1D0108874601087C
S315080061208746010887460108874601088746010809
S3150800613087460108874601088746010887460108F9
S31508006140874601088746010887460108C954010899
S315080061508746010887460108FD9E03080D270308A0
S315080061608746010887460108B5250308E925030877
S3150800618070B5104A104C114DE3695E0714D40828FF
S3150800619001D12B4213D103EA00068E4207D10B4ADE
S315080061A01A40002A14BF6FF00100002070BD013AA2
S315080061B0EAD16FF00200F9E74FF0FF30F6E76FF02B
S315080061C00100F3E7809698000000035002000100E2
S315080061D04FF4803238B50E4B0E4C9A66E56941F697
S315080061E0713315400122E3630B4B0021DA60022369
S315080061F0606121202361FFF7C3FF10B92120FFF753
S31508006200BFFF0122054BDA600DB10023E36338BDF9
S315080062100090005000000350001003500020035067
S315080062202DE9F84F17464FF48032274B274D9A66CB
S31508006230EB69804603EA020941F671330122EB63F2
S31508006240234B244EDA600FB938462AE008F5005485
S315080062503440C5F81480A4EB0804EB69BC4228BF97
S315080062603C465B072DD48B465BF8043B01EB040ADE
S31508006270AB61D3450ED10423002121202B61FFF702
S315080062807FFF70B92120FFF77BFF50B95946A0441C
S315080062903F1BD8E708210846FFF772FF68B10423B9
S315080062A02B6101220C4BDA60B9F1000F03D00022F2
S315080062B0A3F50053DA63BDE8F88F5BF8043BAB61DE
S315080062C0D7E74FF0FF30ECE700900050000003508E
S315080062D00010035000E0FFFF0020035000000000FC
S315080062E029A101086C00010000000000FF00010060
S315080062F002005A0001000000000000000000000033
S3150800630000000000EF780008000000000000000010
S315080063100000000000000000030025000200000045
S315080063206DAF0008A5780008AF780008E378000884
S3150800633000000000B5A80008B5A800080000000085
S315080063400300200002000000CDB400080000000091
S31508006350000000000000000000000000000000002F
S31508006360000000000000000002008E00030000008C
S31508006370B1B900080000000000000000000000009D
S3150800638000000000000000000000000000000000FF
S31508006390020059000300000021B3000800000000B5
S315080063A00000000000000000000000003978000826
S315080063B00000000000000000020085000200000046
S315080063C009B90008000000000000000000000000F5
S315080063D0000000006DAE00087DAE00080000000059
S315080063E003008C0002000000299F0108000000003D
S315080063F000000000719B010800000000EDA60108DE
S315080064007D9B01080000000002005E0002000000FB
S31508006410A99E01080000000000000000000000001E
S31508006420000000000000000000000000000000005E
S3150800643002008600030000005BA1010800000000BE
S31508006440000000000000000000000000000000003E
S31508006450000000000000000002006C0001000000BF
S31508006460F1BA01080000000000000000000000006A
S3150800647000000000DDA00108DDA001080000000002
S31508006480020073000100000091C701080000000027
S31508006490000000000000000000000000619B0108E9
S315080064A0F5BF0108000000000200720002000000AB
S315080064B0319E0108000000000000000000000000F6
S315080064C000000000000000000000000000000000BE
S315080064D0020087000300000085B5010800000000DF
S315080064E000000000559B01080000000000000000A5
S315080064F0000000000000000002007A00050000000D
S31508006500F1C00108000000000000000000000000C3
S3150800651000000000E5B80108E5B801080000000021
S315080065200100FF00FF00000000000000000000005E
S31508006530000000000000000000000000000000004D
S3150800654000000000000000002500000090AF0020B9
S31508006550FF00000000000000080000000D3A0208D5
S3150800656018000000AF5D02082200000051BA0208B8
S3150800657001000000A95D0208050000006F5C020822
S3150800658004000000315E02080B000000155D0208D9
S315080065902500000075690208240000000D6902083C
S315080065A014000000C97502080C000000956E020868
S315080065B016000000915B0208030000002D6B02081C
S315080065C002000000895B02082A0000003106020862
S315080065D029000000551E020802000000690602088C
S315080065E0010000006306020803000000C51902083E
S30D080065F0000000005D06020828
S31508006600013800D0FCE7704730B5EFF3118130232D
S3150800661083F311880F4B104A1C78106881F3118890
S31508006620BFF36F8F0D490D6845B1FF2C06D01B7857
S31508006630012B04D80968143351F8230048B9EFF33D
S315080066401183302181F31188506883F31188BFF3D1
S315080066506F8F30BD78AE0020B88500205C0400201E
S3150800666070B50C46154610B9FFF7CEFF38B143682A
S315080066702BB12A462146BDE87040006818472320FA
S3150800668070BDD0F870311B689A6C5006FCD55964F9
S315080066909A6C9206FCD500207047D0F870311B68BA
S315080066A09A6C120643BFDB6B00200B701B207047E9
S315080066B080F89910704790F89900704790F89600FE
S315080066C0704790F8A1007047BFF34F8F0549064BF6
S315080066D0CA6802F4E0621343CB60BFF34F8F00BF72
S315080066E0FDE700BF00ED00E00400FA059A4238BF56
S315080066F088547047704710B1D1E900311847704780
S315080067002DE9F84F9846DDE90B490D9B15469A0782
S3150800671006460F4623D02A460A9B03EB040A14446E
S31508006720A24220D10D9B9B0705D5A2EB050AD145B0
S3150800673005EB0A0420D82046BDE8F88F43463946BB
S315080067402020B0470AF1010ACA450AEB0B02F5D325
S31508006750A9EB04024C4588BF00222A44DCE7A2467E
S31508006760A5EB040BF0E702F1010B434639461AF88C
S31508006770010DB0475A46D3E74346224639462020FC
S31508006780B0470AF1010AD2E72DE9F047DDE90D76AF
S3150800679016F0020F9DF82880DDE90854DDE90BCED6
S315080067A01FD106F001094FB1B9F1000F06D0B8F1B3
S315080067B0000F02D116F00C0F00D0013F4FF0300A3F
S315080067C002E005F804A00134A64501D9202CF8D129
S315080067D0B9F1000F05D04FF03009A74201D9202C96
S315080067E02DD116F0100F1FD016F4806F2CD15CB384
S315080067F0744501D0BC4227D1B4F1010E23D0BCF1B7
S31508006800100F3BD1023C16F0200F3CD1202C3CD077
S315080068104FF0780C05F804C00134202C35D04FF021
S31508006820300C05F804C00134202C2ED0B8F1000F26
S3150800683018D04FF02D0C05F804C0013426E005F8F1
S3150800684004900134C9E77446BCF1100FDBD0BCF1E3
S31508006850020FE2D1202C18D04FF0620CDAE74FF085
S31508006860580CD7E716F0040F02D04FF02B0CE2E7CE
S3150800687016F0080F0AD04FF0200CDCE7BCF1020F27
S315080068807446CCD1E8E7202CE9D12024CDE90A7654
S31508006890CDE90854BDE8F04732E72DE9F04391B059
S315080068A0189D1A9E1D9F0DB927F010077C0500D567
S315080068B015B317F0200F14BF4FF0410E4FF0610EBD
S315080068C0AC4600250DF12008AEF10A0EBCFBF6F920
S315080068D006FB19C95FFA89F4B9F1090F94BF303478
S315080068E07444E4B2B44508F8014B05F10105BCFB54
S315080068F0F6F401D3202D10D11C9C069705941B9CF9
S31508006900CDE903649DF86440CDE9015408AC0094D0
S31508006910FFF73AFF11B0BDE8F083A446D6E72DE9A4
S31508006920F04F95B0269ECDE90A23DDE91E74DDE910
S31508006930229B57EA040308BF26F010067205CDE924
S31508006940080102D557EA040337D016F0200F14BF02
S315080069504123612300250DF1300AA3F10A082146D7
S315080069604A465B4638462FF0E3FBD2B2092A94BF63
S31508006970303242444F45D2B274EB0B0405F101059F
S315080069800AF8012B01D3202D14D1259B06960593D1
S31508006990249BDDE90801CDE903939DF88030CDE914
S315080069A001530CAB0093DDE90A23FFF7EDFE15B0A2
S315080069B0BDE8F08F07460C46D1E70025E5E72DE947
S315080069C0F04F93B0CDE90A32DDE91C630E9353EC20
S315080069D0102BCDE90801104619468DED060B1E9DB4
S315080069E02FF004FB80B1DDE906014FF0FF32C84BFA
S315080069F02FF024FB40B9DDE906014FF0FF326FF4B2
S31508006A0080132FF0FDFA68B1DDE908019DED060B4C
S31508006A100E9B1E95CDE91C63DDE90A3213B0BDE86D
S31508006A20F04F8AE10022DDE9060100232FF0E8FA9B
S31508006A30002800F03781DDE906A303F1004BCBF30C
S31508006A400A5015F48063A0F2FF3008BF06260F939C
S31508006A502EF0FAFF9EA3D3E900232FF05FF89EA33A
S31508006A60D3E900232EF0A4FECBF31304894644F0A1
S31508006A707F5180460022A74B504641F440112EF024
S31508006A8095FE97A3D3E900232FF048F802460B4654
S31508006A90404649462EF08CFE2FF0C2FD04462EF0E5
S31508006AA0D3FF91A3D3E90023804689462FF036F811
S31508006AB00022994B2EF07CFE2FF0B2FD8CA3D3E971
S31508006AC000230746494640462FF028F880463846B0
S31508006AD089462EF0B9FF88A3D3E900232FF01EF8C4
S31508006AE002460B46404649462EF060FE02460B46D5
S31508006AF0CDE90C232FF012F8DDE90C2380468946F0
S31508006B00104619462EF054FE0022CDE91001834B9B
S31508006B10404649462FF02CF90022814B2EF048FEBC
S31508006B2002460B46404649462FF022F900227D4B85
S31508006B302EF03EFE02460B46404649462FF018F90F
S31508006B40DDE90C238046894600204FF080412EF06F
S31508006B502DFE02460B46404649462EF029FE0246C1
S31508006B600B46DDE910012FF003F907F2FF37002283
S31508006B706D4B2EF01DFE00223B052EF0CFFF524630
S31508006B805B46804689462FF059FA002840F08D80EA
S31508006B90CDE90C8904F16303C62B8CBF05270427AE
S31508006BA029051FD556A3D3E90023504659462FF089
S31508006BB03BFA002800F0838053A3D3E9002350460C
S31508006BC059462FF01DFA002879D0A642D8BF0024CE
S31508006BD04FF00007C4BF341B04F1FF3426463C4679
S31508006BE045F480650E9B9F422CBF4FF00008A3EB2F
S31508006BF0070815F0020903D0002F18BF4FF0000848
S31508006C003CB1DDE90C23504659462FF0B1F88246CF
S31508006C108B46DDE90601002200232FF0F1F910B1B9
S31508006C200BF100439B46DDE9080125F40063CDE935
S31508006C300183DDE90A324BEC10AB009600F07DF8D3
S31508006C4002465FB3DDE9091315F0200F089E00F12F
S31508006C5001050CBF65204520B047DDE9080105237D
S31508006C60002205930A23002CCDE9023207F1FF37EB
S31508006C704FEAD473B8BF64422A46019304970A9B25
S31508006C800094FFF70AFE0246B9F1000F06D00B9BE7
S31508006C90C41A0B9B1A190E9BA34247D8104613B069
S31508006CA0BDE8F08FDDE906ABC9E600224046494655
S31508006CB01B4B2FF05DF8013CCDE90C016AE7002E6D
S31508006CC090D00F9B002B8DD0013E8BE7AFF3008051
S31508006CD0FB799F501344D33FB3C8608B288AC63FBD
S31508006CE061436F63A787D23F71A379094F930A401F
S31508006CF01655B5BBB16B0240EF39FAFE422EE63F98
S31508006D002D431CEBE2361A3F0000000080842E411A
S31508006D10FFFFEF7F0000F83F0000E03F00002C4037
S31508006D2000002440000018400000F03F2020DDE964
S31508006D300913089DA8470134ABE72DE9F04F5BEC32
S31508006D4010AB97B0CDE90501DDE92048CDE9072369
S31508006D50504652465B465946229F2FF047F970B96E
S31508006D600323CDE902870193A34B0093DDE90501CF
S31508006D70DDE90723FFF7C4FC17B0BDE8F08F4FF035
S31508006D80FF326FF48013504659462FF039F928B16F
S31508006D900423CDE902870193984BE6E74FF0FF32CB
S31508006DA050465946964B2FF049F950B178074CBFD3
S31508006DB004220322CDE902874CBF924B924B0192E3
S31508006DC0D3E7504688A3D3E9002359462FF036F96E
S31508006DD038B987A3D3E90023504659462FF010F94E
S31508006DE060B1DDE90723DDE905014BEC10ABCDE920
S31508006DF02187209417B0BDE8F04FE0E50022002374
S31508006E00504659462FF0FCF8B8B15B46524600206A
S31508006E1000212EF0CBFC012382468B46099317F4FA
S31508006E20806F08BF0624302123460EAAA4F1200944
S31508006E30092B04D89946E41A07E00990EFE7013BC5
S31508006E404B4502F8011BF3D12024594650462FF032
S31508006E50E7FB6E4B054603EBC90393ED007B8DED0F
S31508006E600A7B2EF0F1FD02460B46504659462EF097
S31508006E709DFCDDE90A232EF051FE02460B46CDE9BC
S31508006E800C232FF0E5F806462EF0CEFD02460B46FB
S31508006E90DDE90C012EF08AFC02460B46CDE90C23EF
S31508006EA000225B4B2FF0CAF8B8B1013630462EF0F7
S31508006EB0BBFD02460B46DDE90A012FF0ABF808B127
S31508006EC000260135B9F1000F14D00A210EAB1A19A4
S31508006ED0202C40D13022A14450E00022DDE90C01EB
S31508006EE04B4B2FF08DF80028ECD10EB1F107E9D500
S31508006EF00136E7E728462EF0A7FD02460B46504620
S31508006F0059462EF053FC0022414B2FF079F810B960
S31508006F10013525F001050A210EAB1A19202C0AD0D5
S31508006F2095FBF1F001FB1055303502F8015B013491
S31508006F3005460028F2D107F00302012A38D1B8F134
S31508006F40000F35D0099A12B917F00C0F01D008F1C5
S31508006F50FF38302223E0B6FBF1F001FB1063092E5F
S31508006F6003F1300309F1FF3904F1010402F8013B8A
S31508006F70B0D90646ACE70EA90A551C46202CCAD03D
S31508006F804C4504F10103F6D104F158020DEB020455
S31508006F902E2204F8202C1C46BDE71A550134A045BC
S31508006FA006D9202CF9D1CDE9028701940EABDCE68F
S31508006FB0202CF8D0099B3BB12D2204F158036B44D1
S31508006FC003F8202C0134EEE77A0704D504F15803B8
S31508006FD02B226B44F4E73B07E5D504F1580320223E
S31508006FE06B44EDE7AFF300800000000065CDCD41AE
S31508006FF00000000065CDCDC191E3030895E30308C1
S31508007000FFFFEF7F88E303088DE3030868B20308F0
S315080070100000E03F2DE9F04F9B4691B00B1E0A9306
S31508007020B74B904614BF8146994600251A9E9BF891
S31508007030000070B9454538BF2A4643464FF0000060
S315080070400A9928BF08F1FF32C847284611B0BDE89B
S31508007050F08F25280BF1010B06D02A4643460A99DC
S315080070606C1CC8472546E2E700230CE02D2A1FD0F2
S31508007070302A05D0A2F1300009280ED8002729E0C9
S3150800708043F001038B46594611F8012B2B2A12D0DF
S31508007090ECD8202A12D0232A13D02A2A33D156F81C
S315080070A0047B8B46002FBCBF43F002037F4218E0E7
S315080070B043F00203E6E743F00403E3E743F008037B
S315080070C0E0E743F01003DDE70A208B4600FB0722C2
S315080070D0A2F13007594611F8012BA2F13000092810
S315080070E0F2D99BF800202E2A43D19BF801100BF108
S315080070F00102A1F13000092843F4806330D8002446
S315080071004FF00A0C06E00027EBE702460CFB0411D9
S31508007110A1F13004104610F8011BA1F1300EBEF1A2
S31508007120090FF2D9114611F8010B6C282BD023D878
S3150800713068282FD06A2837D093461BF8010B672892
S315080071405ED8572833D8452807D086D9462800F070
S31508007150E980472881D143F4006343F02003F5E032
S315080071602A2907D156F8044B0BF1020224EAE474E3
S31508007170D8E75A460024D5E7742801D07A28DBD107
S3150800718043F480730BE050786C28F9D143F44073CC
S315080071900232D1E75078682803D043F080030A46C4
S315080071A0CAE743F0C003F3E743F40073F7E7A0F137
S315080071B058020F2A3FF651AF01A151F822F000BF3D
S315080071C0577200085B7000085B7000085B70000867
S315080071D05B7000085B7000085B7000085B70000855
S315080071E05B7000085B70000857720008717300082E
S315080071F05772000849730008297300084973000884
S31508007200A0F16901C9B20F293FF627AF012249F259
S31508007210410C8A4012EA0C0218D10A2900F0E480CF
S3150800722007297FF41AAF43F0210305930823CDE914
S3150800723003431023CDE9012356F8043B2A4600935D
S31508007240484643460A99FFF728FB7BE06F2840F03B
S315080072502F8108220BE0582810D0622800F02681DA
S3150800726023F0100364284FF00A0200F0298123F066
S315080072700C0325E17828F3D11022F8E743F0200320
S31508007280FAE7D90506F1040A01D5316803E058067C
S315080072900DD596F90010CDE90224CDE9047300292D
S315080072A04FEAD1730193B8BF4942009120E019060D
S315080072B0EBD5B6F90010EEE779B1CDE907730023EF
S315080072C0CDE9042306F1070A2AF0070A0694029371
S315080072D0FAE80223CDE9002317E1D80506F1040AE6
S315080072E010D5CDE90473CDE90224019133680093E2
S315080072F043462A4648460A99FFF7CFFA0BE100BFEC
S31508007300F5660008590607D53178CDE904730023D8
S31508007310CDE902240193C8E7316813F0800F18BF3E
S3150800732089B2F2E743F02003CDE90173073626F068
S3150800733007060094B6EC020B43462A4648460A99C5
S31508007340FFF7FBFC054672E667280ED0CDE9017308
S31508007350073626F007060094B6EC020B43462A4683
S3150800736048460A99FFF72BFBECE743F40063EDE781
S3150800737013F0020423D04FF0010A6B1C0B932A4624
S3150800738043460A9916F8040BC8475CB354460B9A49
S315080073901EE0434620200A99C84705EB0A020AF16F
S315080073A0010A5745F5D8002F07F1FF3308BF002318
S315080073B007F1010A1D4408BF4FF0020ADDE7A2469D
S315080073C0EBE7551C434620200A99C8472A4601344C
S315080073D0A742F6D8A7EB0A03574538BF00230B9AEE
S315080073E01A440B920B9D22E63246002C52F8046B87
S315080073F014BF21464FF0FF310B92324631441078C4
S3150800740008B1914211D1A2EB060A13F480620D92DB
S3150800741002D0A24528BFA24613F002030E931BD141
S31508007420AAEB05032A460C9308E00132E7E7531C4A
S315080074300F93202043460A99C8470F9A0C9B13447A
S31508007440BB42F4D3A7EB0A03574538BF00230AF11A
S31508007450010202EB030A1D44AB1B0C9304E01C4615
S3150800746043462A460A99C8470C9B9D1916F8010BEC
S3150800747028B10D9B002BF3D0631E002CEFD10E9B79
S3150800748093B12A46AAEB050405E0561C434620207C
S315080074900A99C8473246A3189F42F6D8A7EB0A03AB
S315080074A0574538BF00231D440B9EC0E50222DEE681
S315080074B03FF6E0AE692823F010037FF4D3AE0A2224
S315080074C0590548BF23F00103692803F4007102D067
S315080074D064287FF4F1AE00293FF4D3AE073626F0D0
S315080074E00706B24670685AF8081BCDE907730023E9
S315080074F00593C30F0028029306940B46049202DAFA
S315080075004B4260EB4000CDE9003043462A464846E8
S315080075100A99FFF704FA0546564688E508B5C36989
S3150800752003B19847002008BD08B5036A03B1984718
S31508007530002008BD024BD3F8B83003B1184770478E
S31508007540B8850020B0F84E30B0F84C1002468B4291
S3150800755017D0B0F8540098B15B1A002B5268B8BF20
S315080075605B4253434FF47A72B3FBF0F3B3FBF2F387
S31508007570581C7F2803D93C23B0FBF3F07F30C0B2F8
S3150800758070470020FBE730B51A4B85B0D3F8BC30FE
S3150800759073B39A685968148810790D78ADF8004065
S315080075A094780128C4F3060408BF087A8DF80940C0
S315080075B0947818BF0020C4F3C0148DF80C40527993
S315080075C008BF00F07F0015F0020F8DF80B200CBFE6
S315080075D0252227228DF808008DF80A201C683CB160
S315080075E0054A934204D33032934201D26846A047F3
S315080075F005B030BDB88500207886002030B5062550
S31508007600164B441C05FB02331E2551FA84F405FB70
S315080076100433D4B2042C01D1234607E033F8185CAE
S31508007620541CFF2D03F106030DD113461E22062412
S31508007630504304FB030002FB0101FF22084B0B44E5
S31508007640A3F8F02030BD53F81E2C43F8242C33F849
S315080076501A2C23F8202C2246DBE700BFA886002038
S31508007660B88500202DE9F04F934602EB01091E224A
S315080076701C461B7985B0012B00934FF0000738BFD5
S315080076800123DFF828A1804602FB09A90BF1FF3088
S31508007690C0B24D46042635F806CCBCF1FF0F18D00B
S315080076A015F8022C012A14D0009A0AB9227B1AB1BD
S315080076B02268D25D62450CD103934FF0FF03F2B204
S315080076C025F8063CCDE90101FFF798FFDDE902132D
S315080076D00198013E721CA5F10605DCD10137FAB204
S315080076E09342D6D8B8F1850F58D094F80C804FF04D
S315080076F01E0943460BF1FF367218012B09FB02A23D
S3150800770038BF01234FF0000A09FB06F60192042749
S31508007710019DB5F818C0BCF1FF0F34D02A7F012AA5
S3150800772031D1009A62BBB8F1000F3AD0A26802EBD9
S315080077304A0E12F81A20624500D022BB062202FB26
S31508007740076209FB01221848024492F8F2C09EF823
S3150800775001200CF07F0E02F07F00864513D1D20976
S31508007760B2EBDC1F0FD1FF220BF1FF302A83C0B228
S31508007770FAB203930291FFF741FFDDE9021302E033
S31508007780B8F1000FD2D1013F7A1CA5F10605C0D188
S315080077900AF1010A5FFA8AF29342B8D805B0BDE841
S315080077A0F08FFF222A83EEE7B8850020A8860020FE
S315080077B030B500240331032A016004718460047320
S315080077C001D8046030BDD41E043AE4B2D2B28E2B7E
S315080077D001F1010507D1097829B95108012A017370
S315080077E003D98560EEE7A11A0171013AD2B2FF2AE0
S315080077F02946ECD1E6E7438870B5FF2B04460D46CB
S3150800780007D043692BB100262A68F3B2117899424A
S3150800781001D8002070BD5268D25C63889A4209D1AB
S315080078206A686369106898476A6800B2136803EB68
S31508007830400313600136E7E7024B034AC3F81021F9
S31508007840704700BFB8850020B8B20308002370B59A
S315080078500A681578DCB2A54201D800200AE0546807
S31508007860E65C4488A64206D1C4680CB9046914B11A
S315080078704860012070BD0133ECE710B5084B02469D
S3150800788093F81841D3F814010023D9B28C4201D8D1
S31508007890002010BD017B01339142FAD07430F4E721
S315080078A0B88500202523037001234370704770B5FF
S315080078B00E4615461C46FFF7E0FF88B190F8713072
S315080078C0103033700A23B0F84E10B1FBF3F1C9B289
S315080078D04B1E622B98BFFF212970FFF733FE2070DD
S315080078E070BD2523037003234370012070475A2275
S315080078F00346027001205870704710B50446AC3034
S315080079002FF09DFB04F1AB031A180020934200D117
S3150800791010BD13F8011F0029FAD00A2908BF013043
S31508007920F4E710B54C1C0B460119045D222C03D054
S315080079307B2C01D05C2C05D1D21A18442FF080FA82
S31508007940012010BD0020FCE72DE9F04705469146C9
S3150800795088462FF074FB2A460646134619780132E4
S315080079602029FAD0C9F800305C1B01236FF0404A81
S31508007970C8F80030A64201D8002014E02F5D291966
S315080079807B2F12D0222F2ED1D8F80030621C5344F8
S315080079902A4449F82320012C09D911F8013C13F08F
S315080079A0DF0F04D02120BDE8F0877D27F3E70134F7
S315080079B02B5DBB4209D12B195B7813F0DF03F1D19C
S315080079C0222F00D12B550134D4E75C2B07D1324640
S315080079D021462846FFF7A5FF0028E3D0013E0134DB
S315080079E0A642E5D8DEE75C2F08D13246214628466E
S315080079F0FFF797FF0028D5D0013EE4E7202FE2D114
S31508007A000022631C9E422A55DDD9EA18EB5C202B1E
S31508007A10D9D0D8F80030072B05DC49F823200133E4
S31508007A20C8F80030CFE71E20BDE72DE9F04F8046A5
S31508007A300F4615469A46044685B0DDF83CB0DDF893
S31508007A404490206808B3DBF80060DAF800108E422C
S31508007A501BDA0E9B53F8261059B30EF075F840BB87
S31508007A6061680136CBF80060087BFE281CD1109BA4
S31508007A700868CDE901B30E9B2A46009301215346B7
S31508007A80CDF80C90FFF7D1FF04462B7843B999F847
S31508007A9000302BB97FB10123444689F800302B709A
S31508007AA0204605B0BDE8F08F0123109A13702B709D
S31508007AB0EBE70C34C5E73C46F2E7F8B50B78044625
S31508007AC0302B0D46164604D14B7803F0DF03582BAE
S31508007AD010D0274F6A1E12F8011F91BB28460A22AA
S31508007AE024F076FA202C03460D462FD1B1FA81F000
S31508007AF040091BE04A1C1E4912F8013F93B9284663
S31508007B002FF09DFA04F00303032BA0F1020012D113
S31508007B100134A41084420AD1A87837288CBF0020E3
S31508007B20012003E0CB5C13F04400E5D1F8BDCCBFDF
S31508007B3001200020FAE7B0EBA40FD4BF01200020F3
S31508007B40F4E77B5C13F00400C5D1EFE726B10843E0
S31508007B5002D0013B61F100050122A240013A1A4018
S31508007B60002D08BF9A420CBF01200020DEE700BFA7
S31508007B7031F103080A7801382D2A0ABF01220022AA
S31508007B8089189AE70FB430B587B00AAC54F8045B85
S31508007B900394FEF739FD084B4FF0FF32CDE9043068
S31508007BA000942B4604A90548FFF734FA002007B0CD
S31508007BB0BDE8304004B0704703990008F76600082E
S31508007BC070B506460D462FF03AFA04463046FFF7DA
S31508007BD0D9FFAC4200D370BD0248FFF7D3FF01348A
S31508007BE0F7E700BF2FE303082DE9F0410446022119
S31508007BF04E48FFF7E5FF1E212068FFF7E1FF63689F
S31508007C005868FFF7BFFF4A48FFF7BCFF67683B7B2A
S31508007C10FD2B0CD8D7F808804FF0FF3540462FF0DB
S31508007C200EFA06460C3717F8013BFF2B01D1BDE8C3
S31508007C30F081212B48D8212B66D8DFE803F067733B
S31508007C4075114B4D4F516565656565656565535598
S31508007C5057595B5D5F6165656565656565656F63F4
S31508007C60344C1EB1202B05F10105DCD002212F482A
S31508007C70FFF7A6FF1E212D48FFF7A2FF2E48FFF7A4
S31508007C8081FF2E4920462EF097FD2D49002818BF62
S31508007C9021462C48FFF776FF3B78202B02D12B2074
S31508007CA009F01EFA2848FFF76DFF4EB118F805309F
S31508007CB01F2B05D018F805001F2801D0B54229DB6F
S31508007CC01B48FFF75FFFAEE7204C214AFE2B08BF93
S31508007CD01446C6E71F4CC4E71F4CC2E71F4CC0E753
S31508007CE01F4CBEE71F4CBCE71F4CBAE71F4CB8E752
S31508007CF01F4CB6E71F4CB4E71F4CB2E71F4CB0E762
S31508007D001F4CAEE70D4CACE7104CAAE706B101359F
S31508007D101C4CABE709F0E4F90135CBE7002E82D01D
S31508007D20013580E7184C9CE7184C9AE71AE40308D3
S31508007D303EE703089BE3030800E40308B0E30308EF
S31508007D40A0E3030813E4030802E40308A2E3030814
S31508007D50AAE30308F3E30308FAE30308EBE30308DB
S31508007D60E7E30308DEE30308D4E30308CAE30308EA
S31508007D70DFE30308D5E30308CBE30308C0E30308FE
S31508007D80B9E303089AE30308F2E30308F9E30308EF
S31508007D9010B50446236803B910BD237A13B92046E3
S31508007DA0FFF722FF0C34F5E72DE9F04F8346ADF5D2
S31508007DB0477D8022002106A82EF0E1FC58462FF0C8
S31508007DC03EF946AD01902A46584626A9FFF7BCFD5E
S31508007DD00446C0BB46982FF032F9A1460546A04690
S31508007DE02746DBF89C6096BBB9F1010F40F0C680C8
S31508007DF00DF1180840462FF022F92F190BEB070250
S31508007E001146461B08EB0504601E06EB020CACEB9C
S31508007E100105002D00F39D80002026EAE6718854AE
S31508007E20DBF890201546AF4200F39880DBF89410F3
S31508007E3032443144CBF89410CBF890202644331BB7
S31508007E40002B00F396800DF5477DBDE8F08FD6F838
S31508007E5008A0BAF1000F00F027815F4417F8012B3C
S31508007E60202A16D000270C2303FB07F20AEB02038D
S31508007E7002935AF802300093002B00F00E81269BDD
S31508007E809845049300F30981029B1A7A1AB17A1C61
S31508007E9031E00134E2E746AADBF8945052F828307C
S31508007EA02D1B2A461846009903932EF070FC059060
S31508007EB00028ECD100982FF0C2F8029B01465868BA
S31508007EC0059A90F80CC0BCF1FE0F40F0EF80049BB9
S31508007ED003F1FF3CE04500F0D080D0F800A00398FD
S31508007EE000922FF0ACF80134009A04441BF80410F1
S31508007EF019B108F101081746B5E70134F6E7009904
S31508007F0006A807F0BDFA6B4906A809F1010907F0AA
S31508007F10B7FABCE714464FF00C0A05680AFB04F2E8
S31508007F20A95819B9A1440D46019CB6E006A807F060
S31508007F30A7FA604906A807F0A3FA0134EEE712F893
S31508007F40010B002840F0AD804FF0200302F8013CF9
S31508007F50A7E010F8015F01F8015B58E71BF802007B
S31508007F6009F0BEF8DBF8902001350132CBF89020F5
S31508007F7059E714F8010B09F0B3F860E77FF763AF28
S31508007F8026AF8022314638460DF58C792EF0F7FB60
S31508007F9031464FF4007248462EF0F1FB06AB1946FF
S31508007FA04FF001089A4611F8012BD2BB49F8286010
S31508007FB03E461846019200932FF041F8DDE900325B
S31508007FC0CE4613F801CB5EF8041B814232D101324A
S31508007FD0904506F801CBF3DADBF89060AE4230DB69
S31508007FE0354A5B4651463548FFF7CCFD38462FF0F3
S31508007FF026F82C445C442246401B2F447D1E261836
S31508008000B11A00292ADC002220EAE0731A553C1826
S31508008010E31B002B7FF717AF17F8010B09F060F881
S31508008020F6E7202A06F1010604BF49F8286008F198
S315080080300108B8E75144895C6145C4D00021B954A8
S31508008040CAE7DBF8902001361BF8020009F048F869
S31508008050DBF890200132CBF89020BFE715F8011F16
S3150800806002F8011BDBF890100131CBF89010DBF811
S3150800807094100131CBF89410C2E78D423FF74AAF0E
S3150800808006A802912EF0DBFF029908447B287FF6AA
S3150800809036AF0B4906A807F0F3F95A46019B03EBDE
S315080080A00B018A427FF44BAF36689CE68D42E7DDCA
S315080080B0EDE600BF2FE303080AE403080DE403080E
S315080080C005E403082DE9F843D0E9245604460F468B
S315080080D0002294F89830012B07D10A2F07D10023E4
S315080080E084F898300020BDE8F88300F29F801B2FA3
S315080080F001D10223F4E70D2F0DD1012384F898301E
S315080081000D2008F0EDFF0A2008F0EAFF0023012001
S31508008110C4E92433E7E74FF00008082F84F898806D
S3150800812034D1454530DDB5420FD1384608F0D8FF81
S31508008130202008F0D5FF013D384608F0D1FF013E62
S3150800814004F80580C4E92456CCE7FBDA05F1FF39C3
S31508008150384608F0C5FF04EB0903A6EB09026119C6
S3150800816018462EF06DFE04F806800146013E484882
S31508008170FFF708FD35464D4501DC4D46E2E7082088
S3150800818008F0AEFF013DF6E7ACD0DBE77F2F1CD148
S31508008190002EA7DDB542A5DA6319691C21441846E5
S315080081A0721B2EF04DFE04F8068001463948FFF78B
S315080081B0E9FC0820013E08F093FFB542F9D1D4F84E
S315080081C09430013BC4F894308CE70A2F98D0092FD5
S315080081D003D12046FFF7E8FD84E7D4F88C30013B4D
S315080081E0B3427FF77FAFB54204EB050805F10109F5
S315080081F00CDB384688F80070D4F89430C4F89090B0
S315080082000133C4F8943008F06BFF6BE74146721BE4
S3150800821004EB09002EF014FE4046FFF7B3FC0820D5
S31508008220013E08F05DFFB542F9DDE2E7022B06D113
S315080082305B2F01D1032353E784F8982049E7032BE2
S315080082407FF450AF413F84F89820032F3FF64AAF9A
S31508008250DFE807F002070A160121204600F0C6FAF1
S3150800826040E74FF0FF31F8E7B542BFF63BAF605D38
S3150800827008F036FFD4F890300133C4F8903031E76F
S31508008280002D7FF72FAF013D0820C4F89050BAE7BC
S3150800829016E403081BE403082DE980480446002376
S315080082A0D0F8B052AFB0EFF31187302282F31188BD
S315080082B0A44AA549106860B1A44E3378FF2B08D1AB
S315080082C091F8190101289EBF431C81F8193103460C
S315080082D033700D6087F31188BFF36F8F116829B16A
S315080082E0012B9EBF1268143342F82350D4F8B40207
S315080082F032F00BFF94F88060002EFBD14FF001039B
S3150800830084F8803094F8883033B1D4F884109048D3
S3150800831084F88860FFF736FC00230B93FEF774F9A0
S31508008320002800F04182C568002D00F03D82012238
S31508008330006826AB1EA9A847002840F035829DF89C
S31508008340781009B90123E8E72046FFF7BBFE079036
S315080083500028E3D0012384F888302378002B74D0D2
S3150800836004F1AC05802120460DF0E4FB4FF40071C2
S31508008370074628460DF0DEFB0137C0F50070874238
S31508008380204674D82EF05BFE074628462EF057FE88
S315080083900137421C2946E8192EF052FD20462EF0D8
S315080083A04EFE2146024628462EF010FA20462EF0AA
S315080083B046FE0A23204480F8AC300023C4F8AC32C9
S315080083C0D4F8A030002B40F0E28116AF3A4620469A
S315080083D00FA9FFF7B9FA002840F0AA8016998DF878
S315080083E0980010908DF83B008DF83A0031B1594845
S315080083F00DF0AAFB10B90123079E1093D4F89C50E0
S315080084000020A8460DF13A090DF13B0A0DF1400B83
S31508008410B8F1000F41D116B101238DF83A309DF815
S315080084203A300693002B56D0002851D09DF83B30A1
S31508008430002B45D0FFF7D8FB00212046D4F88C2026
S315080084402EF09DF90023C4E92433002594F88830DA
S3150800845084F8BC52002B40F09F81002384F88030BA
S315080084600B9B002B3FF446AFD4F8B80240E7FFF762
S3150800847044FA0023C4F8AC021E93269338B194F844
S31508008480AC3023B1204626AA1EA906F083FF002297
S315080084901E9B234483F8AC2064E7D8F8080060B133
S315080084A00FAB0021CDE902A9CDE9007B26AAFFF78B
S315080084B0BCFA9DF89830002BADD1D8F80080A7E714
S315080084C0FFF766FCB8E7A86808B1FFF761FC2D68F6
S315080084D0002DF8D1B0E7002800F057810F9B0593CF
S315080084E0109B0A930A9A059B9342C0F24C81069AFE
S315080084F04368114608930B335E78581C212E0AD818
S315080085001F2E05D8103E072E98BF42F0010200E044
S3150800851007990346F0E7FF2EFBD108981B1A0A981D
S315080085200B3B0344F1B1059A013B9A421FDA2B2013
S31508008530094B0A4A03EB8003996D0948FFF722FBAA
S315080085407AE700BF5C040020B885002078AE0020DA
S3150800855013E403081FE4030868B203083EE70308A8
S3150800856011E40308002ADED1059A9A42DFD10025D4
S31508008570B846AB462F46089B09950C330493059BD2
S31508008580099A93420DDC0F9B1194129326AB139311
S31508008590109B11A81493049B1593089B1B68984776
S315080085A04AE7DDE90923934236DC049B13F80B30CE
S315080085B0202B10D1049B5B445B78FF2BB7D1069B1D
S315080085C083B9D8F80010072E7BD8DFE806F02737DE
S315080085D03A3D4143BB45212B0FD1049B5B445B7855
S315080085E0FF2BA4D1D8F800202EAB03EB870343F862
S315080085F0202C079B0137069376E0A3F11006072E79
S3150800860003D91E460BF1010BD9E7049B5B445B7843
S31508008610FF2B8CD1F6B2D2E70626D0E70022082037
S31508008620FFF74BFA00284CD0731ED8F80000042B2D
S3150800863049D8DFE803F05F687079820000221020CD
S31508008640EEE700222020EBE70820FFF793FAE9E798
S315080086501020FAE72020F8E70B787B2B31D1084663
S3150800866002234FF00009DFF880C110F8012F7D2A98
S315080086701CD1CB5C2BBB19F0010922D1CA46D8F80C
S3150800868000308DF846900C930C9911F8012F7D2A2D
S315080086900C915DD12EAA83F800A002EB87024FEA5F
S315080086A01A2A83F801A042F8203C1CE01CF802E0D4
S315080086B01EF0440F03D009F101090133D5E7202A3A
S315080086C0FBD0262034E70022114623F0E9FB1EAB37
S315080086D003EB8502C0B243F825002EAB03EB8703F4
S315080086E043F8202C01350137099B08F104080133AA
S315080086F0099344E70022114623F0D2FB1EAB03EB95
S31508008700850280B2E7E70022114623F0C9FB1EABBB
S3150800871003EB8502DFE70022114623F049FB1EAB77
S3150800872003EB850240B2D6E70022114623F040FB50
S315080087301EAB03EB850200B2CDE70022114623F0FB
S3150800874037FBE4E72EAB03EB870343F8201CCAE7A5
S31508008750202A99D009F0010109F1010911B98DF80A
S31508008760442091E78DF845200021102211A80D9389
S3150800877023F01EFB0D9B03EB0A020AF1010A907017
S315080087801FFA8AFA80E72120D2E62D20D0E6204675
S31508008790D4F8A41098474FE6D4F884100E48FFF78B
S315080087A0F1F984F8885058E6D4F88C30D4F8942037
S315080087B0013B9A4202DB94F8BC321BB1002384F8D1
S315080087C0803051E6054A06490648FFF7DBF90123DA
S315080087D084F8BC32F2E700BF13E403083EE7030857
S315080087E024E4030811E4030831F1030873B50131E1
S315080087F00446D0F8AC521CD115B1013DC4F8AC52B0
S31508008800002520462EF01BFCA84218D8D4F88C2048
S31508008810002120462DF0B3FF0023D4F8AC22C4E98A
S31508008820243322B1CDE9003394F8AC3093B902B0C1
S3150800883070BDFFF762F8A842F9D90135DEE70820CE
S3150800884008F04EFC202008F04BFC082008F048FCF5
S315080088500135D6E76A46204601A906F09BFD0028A1
S31508008860E5D0019D04F1AC06009BAB42DFD9715DF2
S315080088702046FFF727FC0135F6E7134A70B5536D16
S31508008880116D0B401149002B0B659DB202DB0126C9
S315080088906DB970BDD0680122BDE870400C4BC0F3BD
S315080088A0042003EB800382409A6031F0E9BBB5FAF5
S315080088B085F4C4F11F04E4B2204606FA04F431F044
S315080088C0DFFB25EA0405E3E7000004500020045016
S315080088D0B8850020012910B502D9022915D010BD86
S315080088E0154BD3F81C41A4F5C27414F5C27FF6D013
S315080088F0D4F8740132F02DFBD4F8703105211868CC
S315080089000FF03AFDD4F88441EDE70B4BD3F81C4140
S31508008910A4F5C27414F5C27FE1D094F8973043B930
S3150800892094F8953003F0FF011BB9D4F8740131F0BF
S315080089309DFCD4F88441EBE7B88500202DE9F74380
S31508008940D0E9043404F17C07D0F80C900646013BC4
S31508008950102200213846D4F874809DB22DF00FFFFE
S315080089600B4BC5F30A0543EA0513C4E91F3901236E
S3150800897094F8780084F88C30C4F884803A46054B1D
S31508008980009604F164010AF003FB03B0BDE8F08326
S315080089900000103099890008536910B51446002262
S315080089A0D3F8900083F88C2028B10168C3F890109A
S315080089B00260FFF7C3FF63681BB100212046A26867
S315080089C09847002010BD034693F89420084610B532
S315080089D0FAB10A69B2F5006F1DD8EFF31184302297
S315080089E082F3118893F88C204B617AB103F19002D7
S315080089F0D3F890303BB90360106084F31188BFF355
S31508008A006F8F002010BD1A461B68F3E7FFF796FF25
S31508008A10F3E70E20F6E72120F4E72DE9F04116F0FA
S31508008A20DFF9184BD3F8204131F098FF38BB34B33F
S31508008A30154B1B689C4218D02FF056FB134BD4F8E5
S31508008A4028801F68124B65691E682FF05BFB114B67
S31508008A5098450AD0BD4208D0B54206D00E4B9D4275
S31508008A6008D1A36A0BB994F85C302046BDE8F041FA
S31508008A702FF000BF094B9D4201D0002DF5D1BDE86E
S31508008A80F08100BFB88500205C040020A80D0020F6
S31508008A90AC0D00206C0D0020940D0020800D0020E8
S31508008AA073B50D46910730D483072FD1034622F0BC
S31508008AB003028118994217D14FF48031144BAC1830
S31508008AC0996641F6713103F51C33D963012103F523
S31508008AD00053D960461BA54205EB060009D102B032
S31508008AE0BDE870400FF0E4BC1C6801340ED10433B5
S31508008AF0E0E7042255F8043B0DEB0201019332F03E
S31508008B003BFB0028E7D00FF0D3FCFEE7FDE700BFEC
S31508008B100090005073B5C4070E46154600D5FEE70B
S31508008B20D10700D5FEE700F47043B3F5805F09D19D
S31508008B30C0F30B04531E04F17E64214A2344934276
S31508008B400BD9FEE700F46043B3F5005F32D1C0F3FA
S31508008B500B0404F1006404F5FC24234662199A42C6
S31508008B6029D1A2070ED04FF6FF7336F8022BA01EA6
S31508008B7043EA024304220DEB02010193FFF790FF3B
S31508008B800234023DAB070CD0023D735B04226FEA48
S31508008B9003436FEA13430DEB020160190193FFF7D4
S31508008BA07FFF25B12A4631462046FFF779FF002088
S31508008BB002B070BDFEE713F8011BFF29CFD0FEE710
S31508008BC0FF03E00F342008F0D7B908B505480CF0C4
S31508008BD0E7F9054B0549D3F82401BDE8084031F00B
S31508008BE0A3BD00BF79AE0020B8850020F18B000830
S31508008BF008B50C480CF0DDF90B4AD2F82C31012BDC
S31508008C000CD9591C1CBF03F1FF33C2F82C31074994
S31508008C10D2F82801BDE8084031F086BD002382F865
S31508008C20303108BD79AE0020B8850020CB8B00080E
S31508008C304FF4FA61014809F0B3BB00BFEC86002087
S31508008C40F8B5057A04468D4269D8437A8B4266D3CD
S31508008C500A23B0F84C00B0FBF3F3DBB28B4201D128
S31508008C600020F8BD01EB81035B00A4F84E3022B169
S31508008C70FF2A0ED194F858605EB9AB42A4F84C307E
S31508008C80236D88BF84F85710002BE9D020469847F3
S31508008C90E6E798422CBF0021012184F856104FF4CC
S31508008CA07A710A27FF2A08BF94F858201B1A12FB64
S31508008CB001F1002BB8BF5B42256898B2B1FBF5F607
S31508008CC0B0FBF7F0864220D953B2002B08DC82F0BD
S31508008CD080037E2B97BF4EF6602100217F3A5143D1
S31508008CE0B1FBF0F1142938BF14210A236160A4F8F6
S31508008CF0543004F10C05284613F0A6F858B928464E
S31508008D00616813F0C7F90120ABE7B3FBF6F36560BA
S31508008D10A4F85430EDE7284608F045F8F3E70220B2
S31508008D209FE7426B10B4B2F84C30B2F84E108B4243
S31508008D3003D15DF8044B08F025B8CC1A002CB2F81C
S31508008D405400B8BF644284420BDA0B46A2F84C10B2
S31508008D50117A99423EBF0A21B3FBF1F382F85730E4
S31508008D6008E092F856405CB103449BB29942A2F8D7
S31508008D704C30EDD0136D2BB110465DF8044B1847F7
S31508008D801B1AF2E75DF8044B704708B5054813F05F
S31508008D905BF810B1034807F0F5FF0022024BC3F851
S31508008DA0BC2008BDF0860020B885002033492DE98F
S31508008DB0F043D1F8BC20002A5ED00025032601F135
S31508008DC0C00001F1F00401F1D00701F1E00C824284
S31508008DD034D3A24232D2137B013BDBB2137383BB7B
S31508008DE08242C2E9003393601ED0BA421ED0624561
S31508008DF01FD14FF0020E7346C1F8BC500133B3FBC6
S31508008E00F6F202EB42029B1A01EB0318D8F8C0806F
S31508008E101A01B8F1000F0FD002448242C1F8BC20F3
S31508008E200CD3A2420AD20FE09E46E4E74FF0010EA9
S31508008E30E1E74FF0030EDFE79E45DFD1BDE8F043DB
S31508008E40A3E7936806339360D2F80480D2F808E063
S31508008E5098F80430B8F80290BEF8008003F07F0353
S31508008E60C14505D19EF802E00EF07F0E9E45AED0B4
S31508008E70BDE8F043FEF787BBBDE8F083B885002060
S31508008E800D4B03F59C72824214D1D3F8BC308BB1DA
S31508008E90D3E9011318884A88904207D19A780B7942
S31508008EA002F07F0203F07F039A4201D0FEF76BBB04
S31508008EB000207BE7704700BFB8850020014813F003
S31508008EC0BBB800BF30870020418808B5982908D06C
S31508008ED009D8552905D05E2903D00020C9B208F063
S31508008EE059F8002008BD9F29F6E700B5C378ABB04E
S31508008EF0012B0BD144238DF80030064B4FF4FA7240
S31508008F00D3F818326946986812F021FF2BB05DF83D
S31508008F1004FB00BFB88500200A23F0B5B1F85E400F
S31508008F20ADB0B4FBF3F4E4B2631E622B4FF0010359
S31508008F3006460D464FF0A60201F1100743734FF09F
S31508008F40000102A898BFFF242DF019FC40F2253332
S31508008F50ADF8043095F8713038468DF806308DF83E
S31508008F600740FEF7EFFA33468DF808000521034A55
S31508008F7001A812F0E9FB2DB0F0BD00BFAD8D0008C9
S31508008F8070B40B460022FF2501F10F04012801D118
S31508008F901E780EB901221D7003339C42F6D122B108
S31508008FA070BC0F22012007F0DEBF70BC704710B5F9
S31508008FB0B0B0264CA622002106A82DF0E0FB0E2212
S31508008FC000210DF106002DF0DAFB01A904F5077062
S31508008FD012F040FC40F25943ADF8143094F82832A8
S31508008FE09A1E53425341DB0143F001038DF81630B4
S31508008FF094F82932012B23D994F82422D4F81001A5
S3150800900002F07F0200EBC201097901318B4217DCBD
S315080090108DF8173003F1805350F83220023B1901BE
S3150800902002EB0313525C5B788DF819208DF81A3021
S315080090300A21074A01AB05A812F086FB30B010BD1D
S31508009040012384F829328DF81730EFE7B885002018
S315080090506DA80008ABE770B405880C888A78A54225
S3150800906007D1867886EA020313F07F0301D1964278
S315080090701DD002F07F06072E05D9837803F07F03FB
S315080090809E4207D816D3A54207D983785D060AD02B
S31508009090540608D14FF0FF300AE004D2520602D037
S315080090A083785B0606D070BC04222DF077BF18467D
S315080090B070BC70470120FBE7002310B504468360A7
S315080090C003604360027A007BFF2960F3060208BF4B
S315080090D094F86710227218BF194694F8702004F1A4
S315080090E01000FFF7ADFD2146BDE81040002006F050
S315080090F05FBD30B5294B85B0D3F8144193F81811E4
S315080091000023DAB291423ED800240A22B0F84C5025
S31508009110B0F84E30B5FBF2F5B3FBF2F3EDB2DBB2C5
S31508009120AB4238D1E36E0BB1204698476B1EDBB2D3
S31508009130622B98BFFF252146194884F8715007F01D
S3150800914043FEA37A03F08103812B15D1257815F008
S315080091500C0511D10E2229460DF102002DF00FFB48
S315080091606946204612F076FBA17A2B46FF2268460E
S31508009170C1F3450107F094FE2146012005B0BDE87C
S31508009180304006F015BD04F11002904203F10103C8
S31508009190BBD07434B5E705B030BD00BFB885002034
S315080091A0198F000810B50024436814601B0A04D000
S315080091B0012B10D06FF0850010BD038823F0FF0047
S315080091C0B0F5824F04D1413BDBB2012B00D9013106
S315080091D000201160F0E72C31FAE7F8B5134642880B
S315080091E00C460732072A4FEAD20101D0A1425AD1CA
S315080091F0D0E9016705882022184600212DF0BFFA1C
S31508009200360A034616B1012E50D1C660002C4AD044
S3150800921041F20102954205D0B5F5885F02D0B5F551
S31508009220905F08D15C6026B1B90707F0010212D435
S31508009230A2B3002011E0B5F5105F07D1182C03D0B2
S31508009240202C01D0102C2ED11C60EBE705F44F42E0
S31508009250B2F5824F02D06FF08500F8BDEAB2412A16
S31508009260F9D1202CF7D1134A25F0FF05B5F5E24FC1
S315080092701A600CD0B5F5824F15D14FF4005217F489
S31508009280705F09D017F4864F04D09A60E3E74FF46D
S315080092908042F4E742F480629A60C4E79A6842F032
S315080092A080729A60C5E76FF08600D6E76FF08B008C
S315080092B0D3E700BF200000B02DE9F0411746002291
S315080092C01C4643688CB01B0A80460D46009204D0A3
S315080092D0012B58D06FF08B0090E0038823F0FF0233
S315080092E0B2F5824F4DD14688413B0736DBB2F608C8
S315080092F0012B009605D90B78042B06D06FF0860053
S315080093007CE0BE42FAD13E4605E0013FB7EB460F88
S3150800931005F10105F2D1224631464046FFF75DFFC9
S3150800932000286BD1FA1CC4E9030522F00302626126
S31508009330002E00F0A3802022002101A82DF01FFA9C
S31508009340314601AA4046FFF748FFDDE90176DDE927
S31508009350072C0399002840F091802368A568BB4232
S3150800936040F08C806768B74240F088808D4240F0B4
S315080093708580A169914240F08180E26962453DD0CD
S315080093807CE00097BFE7032FB8D90B78012B40F094
S3150800939082804978002942D0F73908299AD801A34A
S315080093A053F821F003940008C9930008D5920008E1
S315080093B0D1930008D59200081B940008D59200089E
S315080093C00D94000815940008F8254FF410561FE070
S315080093D0FA254FF0807610271C22002102A82DF0CE
S315080093E0CEF90323CDE904350197039601AD0FCDD8
S315080093F00FC495E80F0084E80F0000200CB0BDE804
S31508009400F081F7254FF000762027E5E7FE25234E65
S31508009410234FE1E7FF25234EFAE7FC25D5E72B2F57
S315080094207FF66CAF202220462DF0A9F905F110032E
S3150800943015F0030623610DD001AB05F1280C1A4679
S3150800944028686968083503C265451346F7D1286850
S3150800945001AD10606B68103F2360AB686360EB6812
S315080094606761A3600123E3601EB12C2101A80FF0F8
S31508009470ADFA694620460FF0B4FA20B120212046FD
S315080094800FF0A4FA3AE7009E626906F11C039A42B5
S31508009490BFF44EAFF2E76FF09100AFE70044000269
S315080094A02000008000440003F0B50B46C16804465E
S315080094B001298DB033D12B2A03D86FF089000DB05E
S315080094C0F0BD13F003071A460DD001AD03F1280CC1
S315080094D02E4610685168083203C662453546F7D1EC
S315080094E0106801AA3060012111800021518021688D
S315080094F0516061689160A168D16087B101AA0BAD1E
S31508009500144603CCAC4218605960224603F108039E
S31508009510F6D120682C21186001A80FF057FA002010
S31508009520CDE72DE9F04FAFB00D4616460446039336
S31508009530B0B1A9B1A2B1B0F802B00BF10703072B7D
S315080095404FEAD30A00F0EE80038803F4E043B3F54C
S31508009550805F02D0B3F5005F05D11BF0070F06D078
S315080095606FF0860716E0B3F5804F00F0DB80202207
S3150800957000211CA82DF003F9514620461CAAFFF726
S315080095802CFE074630B963681B0A07D0012B20D08A
S315080095906FF08B0738462FB0BDE8F08F5645C0F000
S315080095A0C4802A463346DDE91E9102912299CDE907
S315080095B0202301912822002124A8DDF87080239F0A
S315080095C02DF0DDF824A831F08CFB60B16FF092071E
S315080095D0E0E70AF12C039E42C0F0A78005F11002CD
S315080095E00AF11C03DFE74FF0007325902C902690B4
S315080095F019A91CA824930FF0BBFA00286DD1199954
S3150800960024A831F078FB19F4805F4AD0B8F1000F2E
S3150800961007DB6FF0920724A831F063FB0028B9D066
S31508009620D4E74FF00109D7F800807B6804A924A87D
S31508009630CDF814900493CDF818800FF08DFBBB6815
S3150800964007A924A8CDF820900793CDF824800FF019
S3150800965083FBFB680AA924A8CDF82C900A93CDF8B9
S3150800966030800FF079FB3B690DA924A8CDF8389016
S315080096700D93CDF83C800FF06FFB7B6910A924A8E9
S31508009680CDF844901093CDF848800FF065FBBB6980
S3150800969013A924A8CDF850901393CDF854800FF051
S315080096A05BFB01231793029B013B012B1CD8019AF4
S315080096B01F4BBAB1169216A924A818930FF04CFBA3
S315080096C019A91CA80FF01DFB38B924A819A931F04F
S315080096D01BFB24A82FF0D6FC48B1482899D16FF077
S315080096E0850798E7134AE5E74FF00053E3E7636811
S315080096F01B0A0BD15A462946208807F0F5FC514625
S315080097002046039AFFF74EFD074684E7012BF6D15C
S31508009710324629461CA8FFF7C7FE0028EFD06FF08F
S31508009720890778E76FF0850734E76FF08C0731E72C
S315080097300800002078B303080028ACBF00F1604099
S31508009740064B4FEA0111C9B2ABBF00F5614000F004
S315080097500F0080F800131954704700BF14ED00E09D
S31508009760002808DB01224309034900F01F00824054
S31508009770603341F82320704700E100E0002807DB4A
S3150800978001234109034A00F01F00834042F82130B3
S31508009790704700BF00E100E000280CDB0122064903
S315080097A0430900F01F008240203341F82320BFF30D
S315080097B04F8FBFF36F8F704700E100E02DE9F0414E
S315080097C00468054694F89430002B40F08680EFF341
S315080097D01182302181F31188C4E9163382F3118886
S315080097E0BFF36F8F2EF074FE022807D1D4F81C0140
S315080097F031F04AFBD4F8A40031F046FBFCF704FF2D
S315080098008542374E0AD1EFF31183302282F311884D
S315080098100022726083F31188BFF36F8F236E93F96A
S3150800982010703846FFF79CFF3846FFF7B5FF236EE2
S3150800983093F911703846FFF793FF3846FFF7ACFFE8
S3150800984094F8A1301BB1D4F8F80031F044FCD4F8F0
S31508009850A40031F02EFCD4F81C0131F02AFC96F84D
S315080098602A32227DB3B1072A14D806EB021393F8DD
S3150800987034307BB101239340EFF31182302181F319
S31508009880118818494B65A1F580518B6282F31188BE
S31508009890BFF36F8F207D07F001FCEFF311813023B2
S315080098A083F311880023104A107B30B90133082B43
S315080098B002F11002F8D186F82A0281F31188BFF363
S315080098C06F8F0023C5E90033C5E90533EB60236EC6
S315080098D02046BDE8F041DB6818470F20BDE8F08157
S315080098E0B885002000200450E085002007B5012235
S315080098F08DF807100DF10701FCF7B2FE03B05DF80D
S3150800990004FB0B4601461846F0E7014608B100205D
S31508009910ECE7704738B5114C054694F82A32B3B1CE
S31508009920B8B10023036005F073FDA0B9EFF3118306
S31508009930302282F311882A6804EB02140122A062FD
S3150800994084F8342083F31188BFF36F8F38BD112054
S31508009950FCE72120FAE71A20F8E700BFB8850020BF
S315080099600B4B93F82A2262B107280CD803EB001395
S3150800997093F834304BB10123064A83401364002020
S31508009980704711207047212070472520704700BF77
S31508009990B8850020001004500B4B93F82A2262B1B8
S315080099A007280CD803EB001393F834304BB1012386
S315080099B0064A83401364002070471120704721200F
S315080099C070472520704700BFB88500200020045046
S315080099D000207047FEE74FF4005300204B607047A5
S315080099E001207047012070474FF0FF307047002074
S315080099F07047002373B50C4615460193FCF704FE21
S31508009A0030B1C66826B12A462146006801ABB04780
S31508009A100198002808BF4FF0FF3002B070BD10B59E
S31508009A2014460020FCF71CFE204610BD302337B52F
S31508009A30007D0DF10701434303F1A04303F580239D
S31508009A40DD6E1C6F30F082FE9DF8070040B9054BAD
S31508009A509D4203D1C4F3400484F0010003B030BD35
S31508009A600120FBE7E387002010B50446FFF7DEFF79
S31508009A7038B1236DD4E912020244934218BF18463E
S31508009A8010BD3022237D534303F1A04303F5802301
S31508009A90DB6EEFE73021037D02464B4303F1A0431B
S31508009AA003F58023D86E07491B6F884208D113F047
S31508009AB0020006D0106A136D1B1A584258417047A7
S31508009AC000207047E3870020014610B5047D204634
S31508009AD0FFF746FF0846FFF7DDFF01462046FFF77A
S31508009AE05BFF084610BD7FB504460D4690F8A16099
S31508009AF02EF0EEFC022816D1CDB1A6B9104B684659
S31508009B00CDE9003604F1FC0302932023039331F0D8
S31508009B10FCF90646C4F8F8002046FFF7D5FF10B949
S31508009B20304630F067FD84F8A15004B070BD002EB1
S31508009B30F9D0D4F8F80031F0CEFAC4F8F850F2E7C4
S31508009B4039E403082DE9F84F90F8943004460D4699
S31508009B501646002B79D12EF0BBFC022807465AD0B0
S31508009B6094F899802E44B5424AD0302794F89A3012
S31508009B70BBB32046FFF7A8FF98BBEFF3118987F31D
S31508009B801188207DFFF7ECFE2046FFF76DFFD4F81D
S31508009B9048A0411E514538BFE16C94F854B038BF0F
S31508009BA001F1FF31207D38BF5144FFF7F5FEBBF1C7
S31508009BB0000F12D10B46D4F89C0098420BD013F82C
S31508009BC00129112A01D0132A2DD1A2F111035A42D3
S31508009BD05A4184F8A020C4F89C1089F31188BFF371
S31508009BE06F8F94F8A030002BC0D0B8F1000F21D1A8
S31508009BF0236E20465B6815F8011B98470028B2D0EB
S31508009C002EF066FC022803D1D4F81C0130F0DFFFE1
S31508009C100020BDE8F88FD4F81C0131F035F900288A
S31508009C209ED03846F5E79A4582BFE36C03F1FF33C9
S31508009C305344C2E72B780A2BDAD1236E0D2120462E
S31508009C405B6898470028D3D0DAE70E20E1E72DE9CC
S31508009C50F04F0446077D85B0384604F13806FFF70D
S31508009C607FFE0021102230462CF089FD4FF0300B84
S31508009C704FF44473DFF80CA1DFF80C910AF22B2895
S31508009C8063870BFB0793C4E90F88DB6E434504D152
S31508009C90384605B0BDE8F04F7EE638460DF10F01AF
S31508009CA030F054FD9DF80F70002F61D12046FFF764
S31508009CB0DBFE9AF82A228046237DE2B1072B1AD8C2
S31508009CC00AEB031A9AF83420AAB1EFF311808BF342
S31508009CD01188D9F834100BFB0399D9F8642080F35E
S31508009CE01188BFF36F8F21FA03F3DB075CBFC2F35A
S31508009CF00A135F1C3D4604F1180710220021384656
S31508009D00D4F810902CF03BFD3022237D013D5343BF
S31508009D10C5F30A052D0145F04075C4E9065903F156
S31508009D20A043C4F8208003F580231A6F94F8241002
S31508009D30520862F3410184F82410196F94F824201C
S31508009D4027F0030761F3000284F824201B6F626A78
S31508009D509B0863F39F0247F00207626267640094F8
S31508009D60207D32462146064B09F012F9207D90E700
S31508009D7094F8443023F0020384F84430EFE700BF38
S31508009D808D9D0008B88500200000045092F85430D4
S31508009D9037B5144633B1936D0BB1D06D9847002390
S31508009DA084F8543094F89A301BB32046FFF73EFEE9
S31508009DB0F8B1236E132120465B6898471025236E59
S31508009DC020461B680DF10701984778B99DF80730BA
S31508009DD003F0FD02112A05D1A3F1110253425341A2
S31508009DE084F8A030013D15F0FF05E8D12046FFF7BD
S31508009DF02EFF002384F8543094F8A13043B12EF096
S31508009E0067FB0238012803D8D4F8F80030F0F2FBD3
S31508009E10002003B030BD002307B501A9019309F05E
S31508009E203BFB019803B05DF804FB002307B501AAC4
S31508009E30019309F0D7FB019803B05DF804FBFEE730
S31508009E400846E8E708462FF0E5BA08461146ECE763
S31508009E50BFF35F8F074B5A6A22F480325A62D3F8EF
S31508009E60942022F00102C3F89420BFF34F8FBFF36A
S31508009E706F8F704700ED00E010B50A4C94F8683211
S31508009E8073B194F869325BB12FF0CEFB002384F8E6
S31508009E90693284F86A32012384F86B3284F86C32AA
S31508009EA010BD00BFB88500200122024B83F8A82008
S31508009EB0704700BFB8850020464A70B5156F690718
S31508009EC02BD504234449454C0B6708238B62926DB6
S31508009ED012F0010F13D1424A1268B2F57A7F0ED9F1
S31508009EE0404E326C12070AD53F4A136430F06CF9BB
S31508009EF0736D23B1C4F87032012384F8743294F870
S31508009F00683213B1012384F86932FFF7B5FF0123DC
S31508009F10042284F87532344B1A6415F001062BD0E6
S31508009F2001222D4B2D4C1A6794F8743213B32FF077
S31508009F30DFFBD4F87032C01AC4F87802D4F8783245
S31508009F400BB1D4F878624FF41671C4F87862D4F875
S31508009F507832234BD4F878221B684B43234903F500
S31508009F60742303F23F23B3FBF1F3934211D2002388
S31508009F7084F87432FFF780FFAB0042BF4FF00052FF
S31508009F80154B1A67002DBEBF4FF00042124B1A67D9
S31508009F9070BD94F87C32D4F8781204EB8300D0F8BC
S31508009FA084220133511AD4F88022DBB2521AD4F82B
S31508009FB07812C4F88022C0F884120A210932B2FB4A
S31508009FC0F1F2C4F8AC20B3FBF1F201FB123384F8CA
S31508009FD07C32CCE70040005A0060005AB885002061
S31508009FE0380E002000800A5000A00A5040420F0098
S31508009FF010B52EF06DFA02280CD1074CD4F8C4021D
S3150800A00020B9064830F01AFEC4F8C402BDE810406C
S3150800A01030F03ABF10BD00BFB885002084B30308EE
S3150800A02008B52EF055FA022806D1044BD3F8C40217
S3150800A030BDE8084030F0CBBD08BD00BFB88500209C
S3150800A040B0F1006F0FD300F07843B3F1006F0CD076
S3150800A05000F06040B0F1404F09D0B0F1604F14BF36
S3150800A0600420032070470020704701207047022013
S3150800A0707047F0B5284B044693F8C8320D46164685
S3150800A08085B0002B45D0FFF7DBFF012803D904284C
S3150800A09034D1212423E014F48013C4F3130725D004
S3150800A0A01E4E96F83430A3B3012130460BF096FFC6
S3150800A0B0394630461A4A0DF10F030CF005F90446E5
S3150800A0C080B99DF80F30032B0CD0022B0CD13046EB
S3150800A0D013490BF0C1FE2860F06B08F05FFE2046BE
S3150800A0E005B0F0BD2D24F7E76124F5E700920B488B
S3150800A0F00A4639460CF0D2F90446F0E7FFF778FF2E
S3150800A10032462946204605F0C7F80446FFF788FF79
S3150800A110E5E71124E3E700BFB8850020801000209A
S3150800A12050100020184B70B593F8C83205460C46F7
S3150800A13016463BB3FFF784FF012803D9042812D13A
S3150800A14021241BE0EB02C5F3130105D522680F484D
S3150800A150BDE870400DF0AABB13460C482246BDE880
S3150800A16070400DF00FBBFFF743FF4CB12146324656
S3150800A170A8B2FEF7CFFC0024FFF752FF204670BDB9
S3150800A1802124F9E71124F9E7B8850020801000207A
S3150800A19010B504462EF004FF0C4BA0F57A729A42CD
S3150800A1A012D84FF47A73B0FBF3F05C43084BB3FB59
S3150800A1B0F0F3B4FBF3F0022806D9BDE810400323F8
S3150800A1C0B0FBF3F0FCF71CBA10BD00BFFFC99A3B01
S3150800A1D040420F000CB41FB506AC54F8043B0A46BF
S3150800A1E00094014604480394FCF714FF04B0BDE844
S3150800A1F0104002B0704700BFED66000838B5451E2E
S3150800A20015F8014F2CB90A212046FFF76FFB2046A7
S3150800A21038BD21460020FFF769FBF1E71FB5034665
S3150800A22000914FF0FF3203A90248FCF7F3FE05B090
S3150800A2305DF804FB0B99000807B5009313460A4618
S3150800A24001460348FCF7E6FE03B05DF804FB00BFD1
S3150800A250ED6600082DE9F043501E2B4AC0B292F86D
S3150800A260D642079F84424AD90C246043D2F8CC824E
S3150800A27018EB000445D06289002A42D0B4F904508C
S3150800A280B4F906608D42B4F908C01EDCB142A8BF15
S3150800A2903146BCF1000F34D002F1FF3E1FFA8EFEA4
S3150800A2A00CFB0E594C1B94FBFCF44E45D8BF72466A
S3150800A2B0A4B2A24202D3B14218BF224658F800E01F
S3150800A2C05EF822000EEB820403E02946E1E7013A34
S3150800A2D092B21AB154F8048D4045F8D0B1421EBF67
S3150800A2E01CFB02F1491909B2994203DD12B1013A80
S3150800A2F092B2E5E738600020B980BDE8F0830E2009
S3150800A300FBE70220F9E700BFB8850020FF20704769
S3150800A310004870470080FFFF0FB47FB50A4811F068
S3150800A320DDFC60B1094A09ABCDE90420039300932B
S3150800A3304FF0FF32089B064804A9FCF76BFE07B0EE
S3150800A3405DF804EB04B0704750E40308039900086D
S3150800A350F766000808B50448FFF7DEFFBDE80840C1
S3150800A360302006F009BE00BF55E4030830B5B9B081
S3150800A3706A22002168462CF002FA712200211BA8E5
S3150800A3802CF0FDF910486A236A460521D0F8D80250
S3150800A39004F04CF90C2403AD052229461BA82CF021
S3150800A3A01CFE2F2C03D009491BA82CF007FE0534E8
S3150800A3B0E4B2342C05F10505EED105481BA9FFF7D3
S3150800A3C0ABFF39B030BD00BFB885002060E903088F
S3150800A3D074E403081F4B93F8C830212B19D8212B96
S3150800A3E031D8DFE803F01432111E30202224262843
S3150800A3F0302A303030303030303030303030303055
S3150800A4003030303030302C2E1349144884E7144944
S3150800A410FBE7FE2B1BD01349114AFF2B08BF114639
S3150800A420F3E71149F1E71149EFE71149EDE711495A
S3150800A430EBE71149E9E71149E7E71149E5E711496A
S3150800A440E3E71149E1E70749DFE71049DDE7104986
S3150800A450DBE700BF78AE002088E40308B7E403080A
S3150800A4607DE4030880E403088CE403088FE403080A
S3150800A4703EE6030892E4030895E4030898E4030813
S3150800A4809EE40308A4E40308A7E40308B4E4030865
S3150800A490AAE403080CB437B506AB53F8042B0C46EC
S3150800A4A00C4860210193FFF7C7FE051E0DDD0A4B18
S3150800A4B0614201F00A0158185B5C33B111F00EFCD9
S3150800A4C018B12A460349FCF7CBF803B0BDE830407B
S3150800A4D002B070479488002094B3030837B5054640
S3150800A4E0034600910C46012000210A4AFFF7D2FFD5
S3150800A4F0012D06D064B9712003B0BDE8304006F0DE
S3150800A5003BBD1CB1032C03D13020F5E73420F3E71B
S3150800A51003B030BDBFE403082DE9F041B8B0E0222E
S3150800A520002168462CF02BF9FF232C4E8DF80030BD
S3150800A530D6F818826946D8F8040030F00DFD0128CF
S3150800A54002D038B0BDE8F08100211920244AFFF76F
S3150800A550A1FF9DF80030803B072BEBD801A252F8EB
S3150800A56023F000BF8FA5000835A50008D5A500086B
S3150800A57035A50008D5A5000835A5000835A50008A5
S3150800A58085A5000800211920164AFFF783FFD6F88B
S3150800A5903C7300253C463B789D42CBDA2379012B58
S3150800A5A007D0022B0DD04BB969462369E068984756
S3150800A5B004E09DF80420E3889A42F5D0013510346A
S3150800A5C0E9E79DF80420E3889A42F7D19DF805202B
S3150800A5D0237AF1E7FCF7AEFFACE700BFB8850020A9
S3150800A5E0E7E40308F9E403082DE9F04300242646C6
S3150800A5F0274685B0DFF86080DFF860908DF80F4059
S3150800A600D8F8400302A90297ADF80C608DF80E4001
S3150800A61030F0A2FC0128029FBDF80C609DF80E40A0
S3150800A62002D005B0BDE8F083334600211920084A58
S3150800A6300094FFF72FFF074D4D45E1D2AB88B34293
S3150800A64004D12B6813B13946204698470835F3E7F5
S3150800A65009E50308E0620008B8850020F0620008F2
S3150800A66010B504460A4A00211B20FFF713FFE378BA
S3150800A670012B08BF0022074B08BF83F84423D3F8F1
S3150800A68048331BB12046BDE81040184710BD00BF2F
S3150800A6901AE50308B8850020024BD3F818329B69DF
S3150800A6A018797047B8850020094BD3F818329B698A
S3150800A6B0D88860B1831EE62B08D9A0F58070B0F55E
S3150800A6C0806F2CBF00200120400070470120704792
S3150800A6D0B88500200128024608B501D841B90122EB
S3150800A6E0FFF7E2FF022805D1531E5842584108BD1C
S3150800A6F00020FCE70520FAE72DE9F74F804691F898
S3150800A70002900D4614469A4606F02AFC814502D860
S3150800A710B9F1000F03D14FF0010985F802904146BF
S3150800A7204846FFF7D7FF1E2100222B783A4E2370A2
S3150800A730AB780746A37009EB080301FB0366E070D4
S3150800A740134630462271D1B28F4207D82A78852A15
S3150800A75018D08E2A19D00533DBB232E030F81E1C29
S3150800A760FF29F3D010F81ACCBCF1010F07D0042B3F
S3150800A770ECD804EB030C01338CF80510DBB201327C
S3150800A7800630E0E703226270E5E74FF0000C03228B
S3150800A7901E2165464FF0060B627009F1FF324A43E7
S3150800A7A001FB08F104EB030901925FFA8CF087427A
S3150800A7B00CD8002DCFD000221C4406331D446271EC
S3150800A7C0EBB28AF8003003B0BDE8F08F36F81E8C7D
S3150800A7D0B8F1FF0FEDD016F81A0C012818D1E818B1
S3150800A7E000F1080EBEF1AA0FE3D8019A204480F8BA
S3150800A7F006800BFB0C20094A0844104405F1010E9B
S3150800A80090F8F200023559FA8EFEEDB28EF806007F
S3150800A8100CF1010C0636C8E7A8860020B88500208A
S3150800A82070B5104D134606460A46014605F5BC7036
S3150800A83013F052F804460021162096F830300A4ADA
S3150800A840FFF728FE022C09D054B996F83030EA18DA
S3150800A85005EB830582F8DC41C5F8E841012070BDA7
S3150800A8600020FCE7B885002031E5030838B50F4C11
S3150800A87094F82832022B15D194F829526B1C84F8C7
S3150800A880293206F06DFB85420CD2002104F553707F
S3150800A890074AFFF7C5FF04F553700A21BDE838409B
S3150800A8A011F0F8BB002384F8283238BDB88500209B
S3150800A8B0559000082DE9F041002501232E46194F31
S3150800A8C0194CDFF86C80C7F8144187F8183197F8E7
S3150800A8D01831AB4201D8BDE8F081632363761423AF
S3150800A8E094F87020C4E9043384F86820267604F1C5
S3150800A8F01C0001210D4AFFF793FF04F1100323659D
S3150800A9000A23A4F86430637EC4F86080A4F85C6007
S3150800A910A4F85E6084F8673084F871600135743491
S3150800A920D5E700BFB885002090AF0020238D00082A
S3150800A930F3900008002310B50478DAB2944201D8DF
S3150800A940002010BD4268D25C8A4209D0252903D16D
S3150800A950262A05D00133F0E72629FBD1252AF8E770
S3150800A9600120EEE738B50D465E21044606F012FBD7
S3150800A9702A0603D59821204606F00CFB6B0703D060
S3150800A9809F21204606F006FB8CB18521204606F05D
S3150800A99001FB8E21204606F0FDFA5921204606F0D5
S3150800A9A0F9FA6C212046BDE8384006F0F3BA55217D
S3150800A9B0F8E7034613B59C6808461146E4B11B78C8
S3150800A9C0022B0BD0032B12D0012B17D12346027A68
S3150800A9D0D0E9000102B0BDE810401847131D0093E6
S3150800A9E01368027AD0E90001A04702B010BD2346D9
S3150800A9F002B0BDE8104018472046F6E70420F4E701
S3150800AA00F8B505460E46064C064FBC4200D3F8BDBF
S3150800AA1031462046A8470028F9D12834F5E700BF73
S3150800AA20F06200084865000807B500210648FFF7E8
S3150800AA30E7FF0422054B00200DEB0201019306F007
S3150800AA4092FA03B05DF804FB2975000800010B00B3
S3150800AA5030B50B4BABB00446A82200216846D3F8A4
S3150800AA6018522BF08CFE652300226946A8688DF8DB
S3150800AA7000308DF8044011F06AF92BB030BD00BFE4
S3150800AA80B885002008B500231A461846194608F066
S3150800AA907BFC0420FFF7DCFF0022094B83F88C239C
S3150800AAA093F830215AB983F88D2383F88E2383F8D7
S3150800AAB08F2304490448BDE8084006F085B908BD57
S3150800AAC0B885002004B00020BDB701083A2370B548
S3150800AAD0C6B0634C0DF1070633703146D4F89803B7
S3150800AAE030F03AFA012801D046B070BD3578002119
S3150800AAF02B4619205B4AFFF7CDFCA5F13003082B3E
S3150800AB000CD8DFE803F056234441050B0B0B47002E
S3150800AB1094F88C33C3B1332006F02EFA2B46002165
S3150800AB200120514AFFF7B6FC712D68D0722D7ED0F0
S3150800AB30322D00F09180332D00F09080312DCCD14C
S3150800AB404A48FFF7E9FBC8E73120E5E7D4F81832A9
S3150800AB509B69197891B119200021454AFFF79AFC9B
S3150800AB600320FFF775FF012384F88C3300234FF485
S3150800AB7061711A46642008F007FCCFE719203D4AA0
S3150800AB80FFF788FC0120ECE70020FFF761FFFFF7DD
S3150800AB9079FFC3E7D4F8900303F05CFED4F8940376
S3150800ABA003F058FEFFF740FF334B344A5A6203F06E
S3150800ABB0B0FC4FF080730293D4F818329B69DB8897
S3150800ABC01BB902A8FEF791F9A8E7962200210DF114
S3150800ABD01E002BF0D4FD5A238DF81C3001231022B9
S3150800ABE0002103A88DF81D302BF0C9FD0221244A47
S3150800ABF003AB07A810F0A8FD00288FD1E1E721488C
S3150800AC0090F8203190F8242162F306030A2280F88E
S3150800AC102031B0F87431B3FBF2F3DBB22BB100216B
S3150800AC2000F58C70FEF748FA57E7FF21F8E7002190
S3150800AC300120154AFFF72EFCFC22002107A8D4F8AC
S3150800AC4018522BF09CFD13238DF81C30002228681F
S3150800AC5007A911F07CF840E70C4872E70C4870E742
S3150800AC60B88500204BE5030885E50308BFE503081A
S3150800AC7057E503086EE503080000085004001D03A5
S3150800AC80EB8E000878AE0020B6E50308D6E5030883
S3150800AC90F0E5030813460A4601460248D0F894032D
S3150800ACA003F0C4BCB8850020F0B50027064687B077
S3150800ACB002AC0F223946204601972BF060FD032E81
S3150800ACC0334D3AD0012E09D13146D5F8940301AA5D
S3150800ACD004F0FAF810B9019A0F2A29D0214630460D
S3150800ACE0FEF74EF921460F220120FFF7D3FF06276C
S3150800ACF00023284903EB4302A05C1832088007FBAF
S3150800AD0003506A4412F80F6C013380F8F26012F8A7
S3150800AD100E0C052BC0F34010087112F80E2C01F129
S3150800AD200601C2F3030201F8012CE3D107B0F0BD16
S3150800AD3021463046FFF7AEFFD0E73946062705F12C
S3150800AD40F00007FB0156038801EB4102A35496F86D
S3150800AD50F26002F118036B4403F80F6C0379467925
S3150800AD605B01224406F00F0603F02003334396786E
S3150800AD70013126F02F0633430529937000F10600AA
S3150800AD80DFD10F222146012006F0EDF8CEE700BFFD
S3150800AD90B8850020A88600202DE9F0430F4685B027
S3150800ADA0044615460021102268461E462BF0E7FC8D
S3150800ADB0012F02D8012C02D11FB100202AE0002C55
S3150800ADC03DD006F0CDF8A042F7D3032E25D11E219B
S3150800ADD0254B3A1901FB02384FF0FF090422013CC2
S3150800ADE0E4B22B78D6B2852B03D118F8023C012B96
S3150800ADF006D032463946204628F8069CFCF7FEFB64
S3150800AE00721E52B2531CA8F10608EAD10320FFF7B6
S3150800AE104BFF012005B0BDE8F083042E02D1EB7884
S3150800AE20002BD4D03246294668468E23FCF7C0FC50
S3150800AE306B46224639462878FCF714FCE6E7324684
S3150800AE408E2329466846FCF7B3FC06F089F80124E8
S3150800AE500646B442DAD822466B46002128780134E1
S3150800AE60FCF700FCE4B2F4E7A88600200120024BB8
S3150800AE7083F89A0118E700BF78AE0020002013E790
S3150800AE802DE9F04398462B4B0446D3F818920E4604
S3150800AE90D9F8183017461D78C1B04DB929461B2078
S3150800AEA0254B264AFFF7F6FA284641B0BDE8F08357
S3150800AEB055682B7903B99370AA2E38D884B1BA7815
S3150800AEC0AB780AB959060BD0602104F8041C0D2189
S3150800AED004F8022C04F8031C04F8013C0436043C6C
S3150800AEE0FC22002101A82BF04AFC01238DF804302E
S3150800AEF03B788DF80D608DF80C302B883246ADF80E
S3150800AF00BC307B7821468DF8C0306B790DF10E0088
S3150800AF108DF8C230CDF808802BF058FC4FF47A62D1
S3150800AF20D9F8000001A910F012FF0546BCE7022572
S3150800AF30BAE700BFB8850020BCB3030806E60308D5
S3150800AF40037813F00C0F084B0CD190F90820002A4F
S3150800AF5008DB93F89C03421E50425041002283F8B6
S3150800AF609C2370470120F9E7B88500202DE9F047B2
S3150800AF70D0F80490076899F801303D7A012B0E46FF
S3150800AF8005F07F0529D0022B79D13846FFF7D8FF7F
S3150800AF9018B102252846BDE8F0872846FCF76DFC5F
S3150800AFA00028F6D0252334680A2223700323637009
S3150800AFB090F871301030A370B0F84E30B3FBF2F34E
S3150800AFC0DBB25A1E622A98BFFF23E370FCF7BAFA6F
S3150800AFD0052320713371FF25DCE799F80280A8F173
S3150800AFE06403DBB29A2BD4D990F808A0BAF1020F01
S3150800AFF0CFD92846FCF741FC04460028C9D00346A9
S3150800B00079683868BAF1030F03C3B868186008BFCF
S3150800B01094F87030284608BF89F8033099F8037009
S3150800B0207B1EDBB2FD2B82BFA37A23F08003A372BB
S3150800B030FCF723FC05460028ABD0B8F1FF0F08BF84
S3150800B04090F867803A4641461030FDF7F9FD074605
S3150800B0502946002004F0ACFD012F02D0002FBAD0FB
S3150800B06097E7A57A15F00105B5D0237813F00C0FEC
S3150800B070B1D104F11000FCF765FA70718AE7002572
S3150800B08088E74107034607D4820707D410F0010072
S3150800B09005D1DB09980070470320704702207047E6
S3150800B0A02DE9F0430025FF242E46A5B0882200216D
S3150800B0B002A82BF064FB564BDFF87C91D3F8188274
S3150800B0C0D8F80C0002A98DF808408DF810608DF8A4
S3150800B0D011502FF041FF01289DF808409DF8106097
S3150800B0E09DF8115002D025B0BDE8F0830021192043
S3150800B0F0484AFFF7CFF9C42C12D8BF2CE0D9A4F1DF
S3150800B100C003042BDCD801A252F823F035B100089D
S3150800B1106FB10008C1B0000873B10008EFB10008AC
S3150800B120DD2C6BD0EA2CCBD19DF80C100029C7D1A9
S3150800B130394A02E02EB9394A00211920FFF7AAF93F
S3150800B140BEE72B4600211920354AFFF7A3F9039BD2
S3150800B150002BB5D00022ADF8042002228DF8065047
S3150800B1608DF8072001A89847FCF7E4F9A8E72D4AC7
S3150800B170E2E79DF80C7000213B4619202A4AFFF7A2
S3150800B18089F9092F9CD801A353F827F0B5B100080F
S3150800B190C1B00008C1B00008C1B00008C1B00008BD
S3150800B1A0D1B10008C1B00008D9B10008DDB1000866
S3150800B1B0E1B10008D8F818301A781AB11879FFF7EB
S3150800B1C060FF08B1FFF730FC322005F0D5FECBE76B
S3150800B1D0392005F0D1FE73E73220FAE73020F8E788
S3150800B1E000231A461946184608F0CEF868E71920CB
S3150800B1F000210E4AFFF74EF93820EAE70C4B0021EA
S3150800B200012E08BF4B4619200A4AFFF743F957E7AC
S3150800B210B885002041E60308F9E6030857E603085F
S3150800B22074E6030890E60308A9E60308BBE60308E4
S3150800B2303CE60308CCE6030834E603082DE9F041AA
S3150800B240074607980D461446984620B19DF82020D3
S3150800B2502BF039FE98B9FFF71FFAFFF712FF0646DB
S3150800B26078B1B84213D1B8F1000F10D0294640463C
S3150800B2709DF818202BF027FE08B9202D07D10120AC
S3150800B28003E0A5F1200358425841BDE8F081042E99
S3150800B29008D1722D06D1042C08BF002F0CBF01203F
S3150800B2A00020F2E70020F0E70020704773B5044657
S3150800B2B0CDE900120D461646034600211B20144A06
S3150800B2C0FFF7E8F8ACB1FFF7E7F9034645B9C6B9A1
S3150800B2D0104A02F10800002B08BF104602B070BDE4
S3150800B2E0FFF7CFFEA8420ED1002E0B4818BF00204C
S3150800B2F0F4E756B9074B03F11800002D08BF1846A6
S3150800B300ECE72846EAE70548E8E72046E6E700BF0F
S3150800B3101DE70308608900207089002078890020CD
S3150800B3202DE9FF410A9F044616461D46FFF708FE0B
S3150800B33000285FD14B78032B36D0052B5ED0012B26
S3150800B34059D1032E56D159232B7002236B708B7853
S3150800B350012BAB700BD94E49227AD1F8100102F0B5
S3150800B3607F0200EBC201097901318B4215DD012309
S3150800B370484CAB7020462BF062FE21460246281D3B
S3150800B3802BF024FA20462BF05AFEE87020462BF0C4
S3150800B39056FE04303870FF202DE050F8322002EBBC
S3150800B3A0031353F8184CE5E7394D95F828320BBBCB
S3150800B3B08B78227A13F0400F4FF0010312BF022157
S3150800B3C085F82832CB78C2F3060285F82932236835
S3150800B3D085F8C823C5F81C3263682F4A18BF85F854
S3150800B3E028125360A3689360FDF7E1FD0028D2D1C7
S3150800B3F085F82802022004B0BDE8F081CE78247AC8
S3150800B400012E04F07F0430D9214BD3F8103103EB19
S3150800B410C4031B7901339E42C8BF012605F10408FF
S3150800B420CDF80480002CE5D1012E20D1FFF734F9A0
S3150800B430FFF727FE224601463046FFF737FF01ABE6
S3150800B440029002A915480393FFF7DAFA019CA4EBC8
S3150800B4500804002CCED059232B700623E4B2EC70D6
S3150800B46004346B70AE703C7095E70126D6E7084B3E
S3150800B47006F18052D3F81031023A1B68404603EBB6
S3150800B48002139C785968640022462BF09FF9E0E77E
S3150800B490B885002040E70308D4870020F77700081E
S3150800B4A007B5027A417802F07F020120FFF7FEFE17
S3150800B4B000230090694604480193FFF7A1FA019812
S3150800B4C003B05DF804FB00BF4D780008F0B5466888
S3150800B4D0054674780F46012C85B003D0022C23D07C
S3150800B4E000241EE0026801AB1068516803C3906827
S3150800B4F01860B378643BDBB29A2B11D901A8FFF721
S3150800B500CFFF06460028EBD0C46854B16868A04748
